:020000040000FA
:1000000000002C200001040113011D01000100016A
:1000100092190317831891190A118A18901904115B
:10002000BE19040000008F3017208F3C22200F31B2
:100030001B200F3D22200F301F200F3C22208F3C21
:100040000F3D0F3C3E11841910118A1983181117A6
:1000500083199217121701007D049E1902049F193B
:100060008004EA29833E0000A1191F11A0197F0412
:10007000A2190204A319833E00002011A419211122
:10008000A519FF04A01E0330A11A2411251D033554
:10009000AE200404221EA419A518A5142311A51E20
:1000A00024119E1925119F198004EA29833E00001E
:1000B000A7191F11A61922119E1923119F19800437
:1000C000EA29833E0000A919A5191F11A819A4192E
:1000D0000204221EA419A518A5142311A51E24117B
:1000E0009E1925119F198004EA29833E0000A51955
:1000F000AB191F11A419AA19833E00002611AA19D1
:100100002711AB19FF04A61E0330A71A2A112B1DB5
:100110000335A72028119E1929119F1980040B2A45
:10012000833E0000AA192411833E8419833F833E35
:1001300000002534833B2A11833E8019833E000052
:10014000A8130335A913A4130335A5137C200604B3
:10015000833E0000A21E0334A3133B20B020020004
:100160008E3F602A382A532A6B2A863A04000904F3
:1001700086195A04462A0400090486195A04462A94
:100180000400090486195A04462A04000904861941
:100190005A04462A040009048619BB18B618BB186D
:1001A000B818B918BA18B53E353F0304BA198E3BD2
:1001B0000004361D0335EA20BC188636BC133C11FA
:1001C000000403350104BC193C150330863E03349A
:1001D000863AEB20863E040000000F04462A000009
:1001E000932900000F04462A00002F2900000F0465
:1001F000462A00001E2A00000000B7130A04371B1D
:1002000003300421B718B53B06340A21C83BB53F7B
:10021000B718CF18FC043B1B03301E21883F040095
:10022000BB18000000000000863A00000300000038
:100230000000000000000400883B04000004361D9C
:1002400003312C21BB13FC043B1B0330D8200000DE
:10025000FD04BB190000D820BB18D8200200000400
:10026000361D03313821063E063ECF18B537863C91
:100270003611010D03315621063A063A8638B53754
:10028000C83F36110208B019000403340108B1193F
:1002900030119E1931119F1980040B2AB2194F1B7E
:1002A00003345621B5335621B53FCF133611020D15
:1002B00003317421063A063A8638B537C83F3611FD
:1002C0000208B019000403340108B11930119E1955
:1002D00031119F1980040B2AB2194F1B033474216A
:1002E000B5337421B53FCF133611030D033192217D
:1002F000063A063A8638B537C83F36110208B019B3
:10030000000403340108B11930119E1931119F19ED
:1003100080040B2AB2194F1B03349221B53392216A
:10032000B53FCF1302003530AB21353CB31835351E
:10033000B3133311B41934150330B53C0334B53855
:10034000B3188635B3133311B41934150330353D62
:1003500003343539E92135383535C021B534C0216C
:10036000B818BB18B9136304391B0330E9216304BF
:10037000B9193536E921353A353BB718B53FE9218A
:10038000B8130304381B0330E9210304B81900042F
:100390003A1D0335CE21BA1AB918E921353E353F49
:1003A0000304391B0330E9213911630D0331DA21CC
:1003B000B539E1210304391B0330E021B53DE121CA
:1003C000B539B918B535E9210304BA19B53AB718E2
:1003D000B53F0200000D0335F221800D0335FC21ED
:1003E0009F1800011E118419833F1F34833B0011A5
:1003F0009F1984130011020000000000192A9D19A2
:100400009E169F1A9F1300000000192A9C191D11A7
:100410009F191C110200000D03351222800D0335B7
:10042000192200011E118419833F1F34833B0011E0
:1004300002001F118A191E1182190200B5322C22E6
:10044000B53EB718B53F0004361D03352C22B61350
:100450000404361B0334B61835333722353FB7183A
:10046000B53F0004361D033137220104B6190200DE
:100470000F04C119811804008818883B08048919E1
:100480008E180E3D413F083F8E380200AE192E11E6
:10049000AF19AE1A2F11033552227804752A7D0444
:1004A000752A47220200593CCB3C4F04CD194F041A
:1004B000CE19CF18C918CA18C818C804CC19020018
:1004C000090486190904C61909048C1909048B1931
:1004D000F6048D190200D93CD5185004D619280409
:1004E000D7192804D819D4180200AC192C1AAD1940
:1004F000AC192D1103317622020001010001070120
:0A05000000013D01000101010001AE
:0207FE000020D9
:00000001FF
